{
  "contractName": "UserRegistration",
  "abi": [
    {
      "inputs": [
        {
          "internalType": "uint256",
          "name": "",
          "type": "uint256"
        }
      ],
      "name": "userAddresses",
      "outputs": [
        {
          "internalType": "address",
          "name": "",
          "type": "address"
        }
      ],
      "stateMutability": "view",
      "type": "function",
      "constant": true
    },
    {
      "inputs": [
        {
          "internalType": "address",
          "name": "",
          "type": "address"
        }
      ],
      "name": "users",
      "outputs": [
        {
          "internalType": "string",
          "name": "name",
          "type": "string"
        },
        {
          "internalType": "string",
          "name": "email",
          "type": "string"
        }
      ],
      "stateMutability": "view",
      "type": "function",
      "constant": true
    },
    {
      "inputs": [
        {
          "internalType": "string",
          "name": "_name",
          "type": "string"
        },
        {
          "internalType": "string",
          "name": "_email",
          "type": "string"
        }
      ],
      "name": "registerUser",
      "outputs": [],
      "stateMutability": "nonpayable",
      "type": "function"
    },
    {
      "inputs": [],
      "name": "getUserCount",
      "outputs": [
        {
          "internalType": "uint256",
          "name": "",
          "type": "uint256"
        }
      ],
      "stateMutability": "view",
      "type": "function",
      "constant": true
    }
  ],
  "bytecode": "0x608060405234801561001057600080fd5b50610a39806100206000396000f3fe608060405234801561001057600080fd5b506004361061004c5760003560e01c80631d2e4afd14610051578063502c9bd51461006d578063a87430ba1461009d578063b5cb15f7146100ce575b600080fd5b61006b600480360381019061006691906104b5565b6100ec565b005b61008760048036038101906100829190610563565b6101db565b60405161009491906105d1565b60405180910390f35b6100b760048036038101906100b29190610618565b61021a565b6040516100c59291906106c4565b60405180910390f35b6100d661034e565b6040516100e3919061070a565b60405180910390f35b60006040518060400160405280848152602001838152509050806000803373ffffffffffffffffffffffffffffffffffffffff1673ffffffffffffffffffffffffffffffffffffffff16815260200190815260200160002060008201518160000190816101599190610931565b50602082015181600101908161016f9190610931565b509050506001339080600181540180825580915050600190039060005260206000200160009091909190916101000a81548173ffffffffffffffffffffffffffffffffffffffff021916908373ffffffffffffffffffffffffffffffffffffffff160217905550505050565b600181815481106101eb57600080fd5b906000526020600020016000915054906101000a900473ffffffffffffffffffffffffffffffffffffffff1681565b600060205280600052604060002060009150905080600001805461023d90610754565b80601f016020809104026020016040519081016040528092919081815260200182805461026990610754565b80156102b65780601f1061028b576101008083540402835291602001916102b6565b820191906000526020600020905b81548152906001019060200180831161029957829003601f168201915b5050505050908060010180546102cb90610754565b80601f01602080910402602001604051908101604052809291908181526020018280546102f790610754565b80156103445780601f1061031957610100808354040283529160200191610344565b820191906000526020600020905b81548152906001019060200180831161032757829003601f168201915b5050505050905082565b6000600180549050905090565b6000604051905090565b600080fd5b600080fd5b600080fd5b600080fd5b6000601f19601f8301169050919050565b7f4e487b7100000000000000000000000000000000000000000000000000000000600052604160045260246000fd5b6103c282610379565b810181811067ffffffffffffffff821117156103e1576103e061038a565b5b80604052505050565b60006103f461035b565b905061040082826103b9565b919050565b600067ffffffffffffffff8211156104205761041f61038a565b5b61042982610379565b9050602081019050919050565b82818337600083830152505050565b600061045861045384610405565b6103ea565b90508281526020810184848401111561047457610473610374565b5b61047f848285610436565b509392505050565b600082601f83011261049c5761049b61036f565b5b81356104ac848260208601610445565b91505092915050565b600080604083850312156104cc576104cb610365565b5b600083013567ffffffffffffffff8111156104ea576104e961036a565b5b6104f685828601610487565b925050602083013567ffffffffffffffff8111156105175761051661036a565b5b61052385828601610487565b9150509250929050565b6000819050919050565b6105408161052d565b811461054b57600080fd5b50565b60008135905061055d81610537565b92915050565b60006020828403121561057957610578610365565b5b60006105878482850161054e565b91505092915050565b600073ffffffffffffffffffffffffffffffffffffffff82169050919050565b60006105bb82610590565b9050919050565b6105cb816105b0565b82525050565b60006020820190506105e660008301846105c2565b92915050565b6105f5816105b0565b811461060057600080fd5b50565b600081359050610612816105ec565b92915050565b60006020828403121561062e5761062d610365565b5b600061063c84828501610603565b91505092915050565b600081519050919050565b600082825260208201905092915050565b60005b8381101561067f578082015181840152602081019050610664565b60008484015250505050565b600061069682610645565b6106a08185610650565b93506106b0818560208601610661565b6106b981610379565b840191505092915050565b600060408201905081810360008301526106de818561068b565b905081810360208301526106f2818461068b565b90509392505050565b6107048161052d565b82525050565b600060208201905061071f60008301846106fb565b92915050565b7f4e487b7100000000000000000000000000000000000000000000000000000000600052602260045260246000fd5b6000600282049050600182168061076c57607f821691505b60208210810361077f5761077e610725565b5b50919050565b60008190508160005260206000209050919050565b60006020601f8301049050919050565b600082821b905092915050565b6000600883026107e77fffffffffffffffffffffffffffffffffffffffffffffffffffffffffffffffff826107aa565b6107f186836107aa565b95508019841693508086168417925050509392505050565b6000819050919050565b600061082e6108296108248461052d565b610809565b61052d565b9050919050565b6000819050919050565b61084883610813565b61085c61085482610835565b8484546107b7565b825550505050565b600090565b610871610864565b61087c81848461083f565b505050565b5b818110156108a057610895600082610869565b600181019050610882565b5050565b601f8211156108e5576108b681610785565b6108bf8461079a565b810160208510156108ce578190505b6108e26108da8561079a565b830182610881565b50505b505050565b600082821c905092915050565b6000610908600019846008026108ea565b1980831691505092915050565b600061092183836108f7565b9150826002028217905092915050565b61093a82610645565b67ffffffffffffffff8111156109535761095261038a565b5b61095d8254610754565b6109688282856108a4565b600060209050601f83116001811461099b5760008415610989578287015190505b6109938582610915565b8655506109fb565b601f1984166109a986610785565b60005b828110156109d1578489015182556001820191506020850194506020810190506109ac565b868310156109ee57848901516109ea601f8916826108f7565b8355505b6001600288020188555050505b50505050505056fea264697066735822122084e0bffe48f8dd0e603bef9968dce5cfb15669bfd14167c0de865f1efaacffea64736f6c63430008130033",
  "immutableReferences": {},
  "source": "pragma solidity ^0.8.0;\r\n\r\ncontract UserRegistration {\r\n    struct User {\r\n        string name;\r\n        string email;\r\n    }\r\n\r\n    mapping(address => User) public users;\r\n    address[] public userAddresses;\r\n\r\n    function registerUser(string memory _name, string memory _email) public {\r\n        User memory newUser = User({name: _name, email: _email});\r\n        users[msg.sender] = newUser;\r\n        userAddresses.push(msg.sender);\r\n    }\r\n\r\n    function getUserCount() public view returns (uint256) {\r\n        return userAddresses.length;\r\n    }\r\n}\r\n",
  "sourcePath": "D:\\Web Dev\\Blockchain App\\user-registration\\contracts\\UserRegistration.sol",
  "compiler": {
    "name": "solc",
    "version": "0.8.19+commit.7dd6d404.Emscripten.clang"
  },
  "schemaVersion": "3.4.13",
  "updatedAt": "2023-04-19T16:43:26.365Z",
  "networkType": "ethereum",
  "devdoc": {
    "kind": "dev",
    "methods": {},
    "version": 1
  },
  "userdoc": {
    "kind": "user",
    "methods": {},
    "version": 1
  }
}